:100000000C942A000C94B90E0C94EC0E0C941F0F57
:100010000C9447000C9447000C9447000C94470044
:100020000C9447000C9447000C9454130C94081340
:100030000C9447000C9447000C9447000C94470024
:100040000C9499060C9447000C9447000C944700BC
:100050000C94470011241FBECFE5D8E0DEBFCDBF12
:1000600013E0A0E6B0E0E2E2F8E402C005900D92F1
:10007000AA3DB107D9F713E0AAEDB3E001C01D9284
:10008000A43FB107E1F70E946F140C940F240C9465
:100090000000EF92FF920F931F937B018C0120E0F1
:1000A00030E040E05FE40E94490388238CF0C801FF
:1000B000B70120E030E040E05FE40E94C1010E940F
:1000C000A9039B01AC01205030404040504806C07D
:1000D000C801B7010E94A9039B01AC01B901CA0183
:1000E0001F910F91FF90EF900895A0E0B0E0EBE733
:1000F000F0E00C94C323DC012B01FA019C919230B7
:1001000008F439C1EB018881823008F433C194309E
:1001100069F4843009F02FC111969C91119789815F
:10012000981709F428C1A0ECB3E025C1843009F484
:1001300021C18230A9F4923009F01DC19A01AD01AC
:1001400088E0EA010990AE01E90109929E0181501F
:10015000C1F7E201898111969C918923818308C1AD
:10016000923009F407C112962D903C901397EB0141
:100170008A819B811496AD90BD90CD90DC901797AD
:10018000EC80FD800E811F819101281B390BB90184
:1001900037FF04C066277727621B730B6032710537
:1001A0000CF061C0121613066CF537014801062EDB
:1001B00004C096948794779467940A94D2F721E0C8
:1001C00030E040E050E004C0220F331F441F551FB1
:1001D0006A95D2F721503040404050402E213F21B7
:1001E00040235123211531054105510521F021E01E
:1001F00030E040E050E079018A01E628F72808293C
:1002000019293CC0232BD1F1260E371E350146019A
:10021000062E04C096948794779467940A94D2F734
:1002200021E030E040E050E004C0220F331F441FC3
:10023000551F6A95D2F721503040404050402A2146
:100240003B214C215D21211531054105510521F04E
:1002500021E030E040E050E059016A01A628B728CB
:10026000C828D9280BC0821593052CF01C01AA249C
:10027000BB24650103C0EE24FF24870111969C91E5
:10028000D20111968C91981709F445C0992339F041
:10029000A80197012A193B094C095D0906C0A6016E
:1002A00095012E193F09400B510B57FD08C01182D3
:1002B0003382228224833583468357831DC081E0A5
:1002C00081833382228288279927DC01821B930B4A
:1002D000A40BB50B84839583A683B7830DC0220F2F
:1002E000331F441F551F24833583468357838281E0
:1002F000938101979383828324813581468157813D
:10030000DA01C9010197A109B1098F5F9F4FAF4F72
:10031000BF4328F30BC0918333822282EA0CFB1C7B
:100320000C1D1D1DE482F5820683178383E0808304
:10033000248135814681578157FF1AC0C901AA27F8
:1003400097FDA095BA2F81709070A070B0705695EF
:10035000479537952795822B932BA42BB52B848318
:100360009583A683B7838281938101969383828349
:10037000DF0101C0D201CD01CDB7DEB7E2E10C94BF
:10038000DF23A0E2B0E0E7ECF1E00C94CF23698337
:100390007A838B839C832D833E834F835887E9E048
:1003A000EE2EF12CEC0EFD1ECE010196B7010E943F
:1003B000D2048E010F5E1F4FCE010596B8010E9438
:1003C000D2048A8991E089278A8BC701B801AE01DE
:1003D000475E5F4F0E9475000E94FD03A096E6E015
:1003E0000C94EB23A0E2B0E0E8EFF1E00C94CF2313
:1003F00069837A838B839C832D833E834F835887C5
:10040000F9E0EF2EF12CEC0EFD1ECE010196B701A6
:100410000E94D2048E010F5E1F4FCE010596B801D7
:100420000E94D204C701B801AE01475E5F4F0E942F
:1004300075000E94FD03A096E6E00C94EB23A0E279
:10044000B0E0E5E2F2E00C94C32369837A838B8306
:100450009C832D833E834F835887CE010196BE0136
:10046000675F7F4F0E94D204CE010596BE016F5E8A
:100470007F4F0E94D2049985923088F0898982301A
:10048000C8F0943019F4823051F404C0843029F457
:10049000923081F480EC93E0C6C0923049F420E0C1
:1004A0009A858A89981321E02A87CE010996BBC0D4
:1004B000823049F420E09A858A89981321E02A8BBA
:1004C000CE014196B0C02D843E844F8458886D88FB
:1004D0007E888F88988CEE24FF248701AA24BB2471
:1004E000650140E050E060E070E0E0E0F0E0C10174
:1004F00081709070892BE9F0E60CF71C081D191D1E
:100500009A01AB012A0D3B1D4C1D5D1D80E090E062
:10051000A0E0B0E0E614F7040805190520F481E036
:1005200090E0A0E0B0E0BA01A901480F591F6A1F8E
:100530007B1FAA0CBB1CCC1CDD1C97FE08C081E0F5
:1005400090E0A0E0B0E0A82AB92ACA2ADB2A3196B6
:10055000E032F10549F0660C771C881C991C569412
:10056000479437942794C3CFFA85EA892B893C892D
:100570008B859C85280F391F2E5F3F4F17C0CA01FE
:1005800081709070892B61F016950795F794E79428
:1005900080E090E0A0E0B0E8E82AF92A0A2B1B2BC3
:1005A00076956795579547952F5F3F4F77FDE7CF36
:1005B0000CC0440F551F661F771F17FD4160EE0CDE
:1005C000FF1C001F111F21503040403090E05907A0
:1005D00090E0690790E4790760F32B8F3C8FDB0193
:1005E000CA018F779070A070B07080349105A1051A
:1005F000B10561F447FD0AC0E114F10401051105DC
:1006000029F0405C5F4F6F4F7F4F40781A8EFE1786
:1006100011F081E08A8F4D8F5E8F6F8F78A383E01A
:10062000898FCE0149960E94FD03A096E2E10C94C9
:10063000DF23A8E1B0E0EFE1F3E00C94CF2369837E
:100640007A838B839C832D833E834F83588789E0F5
:10065000E82EF12CEC0EFD1ECE010196B7010E9492
:10066000D2048E010F5E1F4FCE010596B8010E9485
:10067000D2048985823040F08989823028F0C70110
:10068000B8010E944A0501C08FEF6896E6E00C941D
:10069000EB23A8E1B0E0EFE4F3E00C94CF2369830F
:1006A0007A838B839C832D833E834F83588789E095
:1006B000E82EF12CEC0EFD1ECE010196B7010E9432
:1006C000D2048E010F5E1F4FCE010596B8010E9425
:1006D000D2048985823040F08989823028F0C701B0
:1006E000B8010E944A0501C08FEF6896E6E00C94BD
:1006F000EB23A8E1B0E0EFE7F3E00C94CF236983AC
:100700007A838B839C832D833E834F83588789E034
:10071000E82EF12CEC0EFD1ECE010196B7010E94D1
:10072000D2048E010F5E1F4FCE010596B8010E94C4
:10073000D2048985823040F08989823028F0C7014F
:10074000B8010E944A0501C081E06896E6E00C9479
:10075000EB23ACE0B0E0EFEAF3E00C94D323698341
:100760007A838B839C83CE010196BE016B5F7F4FA2
:100770000E94D2048D81823061F1823050F1843048
:1007800021F48E81882351F12EC02F81388537FDC9
:1007900020C06E812F3131051CF06623F9F023C093
:1007A0008EE190E0821B930B29853A854B855C8511
:1007B00004C056954795379527958A95D2F76623B5
:1007C000B1F050954095309521953F4F4F4F5F4F79
:1007D0000EC020E030E040E050E009C02FEF3FEFD6
:1007E0004FEF5FE704C020E030E040E050E8B9019F
:1007F000CA012C96E2E00C94EF23DF92EF92FF9275
:100800000F931F93FC01E480F58006811781D1804E
:100810008081823048F480E090E0A0E1B0E0E82AF6
:10082000F92A0A2B1B2BA5C0843009F49FC0823003
:1008300021F4EE24FF24870105C0E114F104010531
:10084000110519F4E0E0F0E096C0628173819FEF3A
:10085000623879070CF05BC022E83FEF261B370BAC
:100860002A3131052CF020E030E040E050E02AC091
:10087000B801A701022E04C0769567955795479554
:100880000A94D2F781E090E0A0E0B0E004C0880FC5
:10089000991FAA1FBB1F2A95D2F70197A109B10979
:1008A0008E219F21A023B1230097A105B10521F03E
:1008B00081E090E0A0E0B0E09A01AB01282B392B59
:1008C0004A2B5B2BDA01C9018F779070A070B07052
:1008D00080349105A105B10539F427FF09C0205CDA
:1008E0003F4F4F4F5F4F04C0215C3F4F4F4F5F4F13
:1008F000E0E0F0E02030A0E03A07A0E04A07A0E402
:100900005A0710F0E1E0F0E079018A0127C0603871
:10091000710564F5FB01E158FF4FD801C7018F77DE
:100920009070A070B07080349105A105B10539F4C4
:10093000E7FE0DC080E490E0A0E0B0E004C08FE3EB
:1009400090E0A0E0B0E0E80EF91E0A1F1B1F17FFA1
:1009500005C016950795F794E794319687E01695AC
:100960000795F794E7948A95D1F705C0EE24FF2404
:100970008701EFEFF0E06E2F679566276795902F60
:100980009F77D794DD24D7948E2F8695492F462BB9
:10099000582F5D29B701CA011F910F91FF90EF9069
:1009A000DF900895FC01DB01408151812281622F9B
:1009B0006F7770E0221F2227221F9381892F880FD3
:1009C000822B282F30E0991F9927991F11969C930D
:1009D000119721153105A9F54115510561057105DD
:1009E00011F482E037C082E89FEF13969C938E93B8
:1009F00012979A01AB0167E0220F331F441F551F66
:100A00006A95D1F783E08C930DC0220F331F441FEA
:100A1000551F12968D919C911397019713969C9355
:100A20008E931297203080E0380780E0480780E4FA
:100A3000580758F314962D933D934D935C93179755
:100A400008952F3F310579F4411551056105710570
:100A500019F484E08C93089564FF03C081E08C93C3
:100A600012C01C9210C02F57304013963C932E9307
:100A7000129783E08C9387E0440F551F661F771F02
:100A80008A95D1F7706414964D935D936D937C9322
:100A9000179708951F93DC01FB019C91923008F495
:100AA00047C08081823008F443C0943051F41196DD
:100AB0001C91843099F58181682F70E0611B710968
:100AC0003FC0843021F0923031F48230B9F181811D
:100AD000882389F12DC011961C9111978230F1F075
:100AE00081811817D9F412962D913C911397828128
:100AF00093818217930794F028173907BCF0149656
:100B00008D919D910D90BC91A02D248135814681C0
:100B10005781281739074A075B0718F4112341F05A
:100B20000AC082179307A407B50740F4112319F0F0
:100B300061E070E005C06FEF7FEF02C060E070E041
:100B4000CB011F910895DF93CF93CDB7DEB7A6E217
:100B5000B0E0E6E2F0E0808180688C93A7E2B0E04C
:100B6000E7E2F0E080818F778C93A7E2B0E0E7E2E4
:100B7000F0E0808180648C93A7E2B0E0E7E2F0E0EF
:100B800080818F7D8C93A6E2B0E0E6E2F0E0808188
:100B90008F7D8C93A6E2B0E0E6E2F0E08081846095
:100BA0008C93A6E2B0E0E6E2F0E0808182608C9374
:100BB000A6E2B0E0E6E2F0E0808181608C93CF9124
:100BC000DF910895DF93CF9300D000D0CDB7DEB78B
:100BD0008A837C836B8381E089838A818032C0F53C
:100BE0008B819C810097A1F18A8187708A83A7E21B
:100BF000B0E0E7E2F0E08081807E8C93A7E2B0E095
:100C0000E7E2F0E090818A81892B8C93A6E2B0E044
:100C1000E6E2F0E0808180648C93E6E2F0E080819F
:100C200082958F70882F90E0817090700097A9F363
:100C3000A6E2B0E0E6E2F0E0808180618C93E4E23D
:100C4000F0E080819181EB81FC819183808301C000
:100C5000198289810F900F900F900F90CF91DF91A3
:100C60000895DF93CF9300D000D0CDB7DEB78A834D
:100C70007C836B8381E089838A81803290F58B81CC
:100C80009C81009771F18091DC03882351F581E00C
:100C90008093DC038B819C819093DB038093DA0348
:100CA000A6E2B0E0E6E2F0E0808188608C938A8181
:100CB00087708A83A7E2B0E0E7E2F0E08081807E7F
:100CC0008C93A7E2B0E0E7E2F0E090818A81892B83
:100CD0008C93A6E2B0E0E6E2F0E0808180648C9341
:100CE00001C0198289810F900F900F900F90CF91C2
:100CF000DF910895DF93CF9300D00F92CDB7DEB789
:100D00009B838A8381E089838A819B81009749F054
:100D1000E4E2F0E080819181EA81FB81918380832C
:100D200001C0198289810F900F900F90CF91DF91B0
:100D300008951F920F920FB60F9211242F933F9395
:100D40004F935F936F937F938F939F93AF93BF93D3
:100D5000EF93FF93DF93CF93CDB7DEB78091DA03A4
:100D60009091DB03009799F01092DC03A6E2B0E0CB
:100D7000E6E2F0E08081877F8C932091DA03309166
:100D8000DB03E4E2F0E080819181F9010995CF91E4
:100D9000DF91FF91EF91BF91AF919F918F917F91E3
:100DA0006F915F914F913F912F910F900FBE0F90D8
:100DB0001F901895DF93CF93CDB7DEB72F970FB65F
:100DC000F894DEBF0FBECDBF8F8780E060E040E0CB
:100DD0000E94990980E061E040E00E94990982E068
:100DE0006F850E946E0C80E062E041E00E949909EC
:100DF00080E090E0A0E0B0E48B879C87AD87BE8761
:100E00006B857C858D859E8520E030E04AEF54E43B
:100E10000E941F02DC01CB018F839887A987BA87C4
:100E20006F81788589859A8520E030E040E85FE32E
:100E30000E94790388232CF481E090E09E838D83C7
:100E40003FC06F81788589859A8520E03FEF4FE725
:100E500057E40E94190318164CF56B857C858D8527
:100E60009E8520E030E040E251E40E941F02DC0158
:100E7000CB01BC01CD010E944900DC01CB019E8366
:100E80008D830FC088EC90E09C838B838B819C8149
:100E90000197F1F79C838B838D819E8101979E83BF
:100EA0008D838D819E81009769F714C06F8178854D
:100EB00089859A850E944900DC01CB019E838D8340
:100EC0008D819E819A83898389819A810197F1F727
:100ED0009A83898380E062E040E00E9499092F961E
:100EE0000FB6F894DEBF0FBECDBFCF91DF9108954E
:100EF000DF93CF93CDB7DEB72F970FB6F894DEBF51
:100F00000FBECDBF8F8780E060E041E00E9499096D
:100F100080E061E040E00E94990982E06F850E94D4
:100F20006E0C80E062E041E00E94990980E090E070
:100F3000A0E0B0E48B879C87AD87BE876B857C85FE
:100F40008D859E8520E030E04AEF54E40E941F0228
:100F5000DC01CB018F839887A987BA876F81788559
:100F600089859A8520E030E040E85FE30E947903BC
:100F700088232CF481E090E09E838D833FC06F81B5
:100F8000788589859A8520E03FEF4FE757E40E94F6
:100F9000190318164CF56B857C858D859E8520E0A0
:100FA00030E040E251E40E941F02DC01CB01BC01B1
:100FB000CD010E944900DC01CB019E838D830FC0CF
:100FC00088EC90E09C838B838B819C810197F1F767
:100FD0009C838B838D819E8101979E838D838D81E0
:100FE0009E81009769F714C06F81788589859A85FD
:100FF0000E944900DC01CB019E838D838D819E81FF
:101000009A83898389819A810197F1F79A838983E9
:1010100080E062E040E00E9499092F960FB6F894B4
:10102000DEBF0FBECDBFCF91DF910895DF93CF9389
:10103000CDB7DEB72E970FB6F894DEBF0FBECDBF8B
:1010400080E090E0A0E2B2E48B879C87AD87BE870A
:101050006B857C858D859E8520E030E04AEF54E4E9
:101060000E941F02DC01CB018F839887A987BA8772
:101070006F81788589859A8520E030E040E85FE3DC
:101080000E94790388232CF481E090E09E838D8375
:101090003FC06F81788589859A8520E03FEF4FE7D3
:1010A00057E40E94190318164CF56B857C858D85D5
:1010B0009E8520E030E040E251E40E941F02DC0106
:1010C000CB01BC01CD010E944900DC01CB019E8314
:1010D0008D830FC088EC90E09C838B838B819C81F7
:1010E0000197F1F79C838B838D819E8101979E836D
:1010F0008D838D819E81009769F714C06F817885FB
:1011000089859A850E944900DC01CB019E838D83ED
:101110008D819E819A83898389819A810197F1F7D4
:101120009A83898388E30E94DA068CE00E94DA06BB
:1011300081E00E94DA062E960FB6F894DEBF0FBE4D
:10114000CDBFCF91DF910895DF93CF9300D00F9261
:10115000CDB7DEB79B838A8319820EC08981282F81
:1011600030E08A819B81FC01E20FF31F80810E94A5
:10117000780789818F5F89838981282F30E08A8170
:101180009B81FC01E20FF31F8081882339F70F90C8
:101190000F900F90CF91DF910895DF93CF93CDB74C
:1011A000DEB781E00E94DA06CF91DF910895DF93E8
:1011B000CF9300D000D000D0CDB7DEB78B836C8347
:1011C00081E08A838C81883200F58B81813019F02F
:1011D0008B818230D1F48B81282F30E03E832D83A8
:1011E0008D819E818130910531F02D813E812230AB
:1011F000310531F00BC08C8180580E94DA0606C0A0
:101200008C8180540E94DA0601C019828A81269658
:101210000FB6F894DEBF0FBECDBFCF91DF9108951A
:10122000DF93CF93CDB7DEB783E065E040E00E9467
:10123000990983E064E041E00E949909CF91DF9130
:101240000895DF93CF93CDB7DEB783E064E040E04D
:101250000E94990983E065E041E00E949909CF91DD
:10126000DF910895DF93CF93CDB7DEB783E064E0DD
:1012700040E00E94990983E065E040E00E949909FE
:10128000CF91DF910895DF93CF93CDB7DEB783E0A1
:1012900066E040E00E94990983E067E041E00E9437
:1012A0009909CF91DF910895DF93CF93CDB7DEB742
:1012B00083E066E041E00E94990983E067E040E056
:1012C0000E949909CF91DF910895DF93CF93CDB715
:1012D000DEB783E066E040E00E94990983E067E0C2
:1012E00040E00E949909CF91DF910895DF93CF9359
:1012F000CDB7DEB7EAE3F0E087E28083E7E3F0E032
:1013000084E08083E4E3F0E08FEF8083E1E3F0E0CA
:1013100086EF8083EBE3F0E01082E8E3F0E01082F8
:10132000E5E3F0E01082E2E3F0E01082CF91DF919C
:101330000895DF93CF93CDB7DEB727970FB6F89414
:10134000DEBF0FBECDBF89836A834B838981843022
:1013500008F0EEC08A81883008F0EAC08B818130C5
:1013600009F06FC08981282F30E03F832E838E8162
:101370009F818130910549F12E813F8122303105D5
:101380002CF48E819F81009761F0D2C02E813F8125
:101390002230310571F18E819F8183309105E9F111
:1013A000C7C0ABE3B0E0EBE3F0E08081482F8A8177
:1013B000282F30E081E090E0022E02C0880F991FB4
:1013C0000A94E2F7842B8C93B3C0A8E3B0E0E8E37F
:1013D000F0E08081482F8A81282F30E081E090E082
:1013E000022E02C0880F991F0A94E2F7842B8C9377
:1013F0009FC0A5E3B0E0E5E3F0E08081482F8A815B
:10140000282F30E081E090E0022E02C0880F991F63
:101410000A94E2F7842B8C938BC0A2E3B0E0E2E362
:10142000F0E08081482F8A81282F30E081E090E031
:10143000022E02C0880F991F0A94E2F7842B8C9326
:1014400077C08B81882309F073C08981282F30E011
:101450003D832C838C819D818130910559F12C81B4
:101460003D81223031052CF48C819D81009769F0FB
:101470005FC02C813D812230310589F18C819D81B5
:101480008330910509F440C053C0ABE3B0E0EBE317
:10149000F0E08081482F8A81282F30E081E090E0C1
:1014A000022E02C0880F991F0A94E2F780958423C8
:1014B0008C933EC0A8E3B0E0E8E3F0E08081482FE1
:1014C0008A81282F30E081E090E0022E02C0880F50
:1014D000991F0A94E2F7809584238C9329C0A5E391
:1014E000B0E0E5E3F0E08081482F8A81282F30E0EA
:1014F00081E090E0022E02C0880F991F0A94E2F763
:10150000809584238C9314C0A2E3B0E0E2E3F0E082
:101510008081482F8A81282F30E081E090E0022EE0
:1015200002C0880F991F0A94E2F7809584238C9358
:1015300027960FB6F894DEBF0FBECDBFCF91DF91D7
:101540000895DF93CF9300D000D00F92CDB7DEB7D0
:101550008A836B838A81843008F06CC08B818830E9
:1015600008F068C08A81282F30E03D832C834C81AD
:101570005D814130510541F18C819D818230910521
:1015800034F42C813D812115310561F055C04C8129
:101590005D814230510551F18C819D8183309105EF
:1015A000B9F14AC0E9E3F0E08081282F30E08B8177
:1015B000882F90E0A90102C0559547958A95E2F7DA
:1015C000CA018170898338C0E6E3F0E08081282F6A
:1015D00030E08B81882F90E0A90102C05595479596
:1015E0008A95E2F7CA018170898326C0E3E3F0E0BF
:1015F0008081282F30E08B81882F90E0A90102C0E4
:10160000559547958A95E2F7CA018170898314C080
:10161000E0E3F0E08081282F30E08B81882F90E09C
:10162000A90102C0559547958A95E2F7CA018170D4
:10163000898302C08FEF898389810F900F900F906B
:101640000F900F90CF91DF910895DF93CF93CDB797
:10165000DEB727970FB6F894DEBF0FBECDBF8983E4
:101660006A834B838981843008F0EEC08A81883098
:1016700008F0EAC08B81813009F06FC08981282F82
:1016800030E03F832E838E819F818130910549F127
:101690002E813F81223031052CF48E819F8100976D
:1016A00061F0D2C02E813F812230310571F18E81EF
:1016B0009F8183309105E9F1C7C0AAE3B0E0EAE376
:1016C000F0E08081482F8A81282F30E081E090E08F
:1016D000022E02C0880F991F0A94E2F7842B8C9384
:1016E000B3C0A7E3B0E0E7E3F0E08081482F8A8150
:1016F000282F30E081E090E0022E02C0880F991F71
:101700000A94E2F7842B8C939FC0A4E3B0E0E4E357
:10171000F0E08081482F8A81282F30E081E090E03E
:10172000022E02C0880F991F0A94E2F7842B8C9333
:101730008BC0A1E3B0E0E1E3F0E08081482F8A8133
:10174000282F30E081E090E0022E02C0880F991F20
:101750000A94E2F7842B8C9377C08B81882309F05D
:1017600073C08981282F30E03D832C838C819D813B
:101770008130910559F12C813D81223031052CF4C5
:101780008C819D81009769F05FC02C813D81223062
:10179000310589F18C819D818330910509F440C028
:1017A00053C0AAE3B0E0EAE3F0E08081482F8A81E9
:1017B000282F30E081E090E0022E02C0880F991FB0
:1017C0000A94E2F7809584238C933EC0A7E3B0E0AF
:1017D000E7E3F0E08081482F8A81282F30E081E024
:1017E00090E0022E02C0880F991F0A94E2F78095BC
:1017F00084238C9329C0A4E3B0E0E4E3F0E080818B
:10180000482F8A81282F30E081E090E0022E02C02C
:10181000880F991F0A94E2F7809584238C9314C053
:10182000A1E3B0E0E1E3F0E08081482F8A81282F36
:1018300030E081E090E0022E02C0880F991F0A94E8
:10184000E2F7809584238C9327960FB6F894DEBF39
:101850000FBECDBFCF91DF910895DF93CF9300D01E
:1018600000D0CDB7DEB789836A838981282F30E025
:101870003C832B838B819C8181309105D1F02B811E
:101880003C81223031052CF48B819C81009761F0E2
:101890001EC02B813C812230310581F08B819C81DF
:1018A0008330910581F013C0EAE3F0E08A81808300
:1018B0000EC0E7E3F0E08A81808309C0E4E3F0E052
:1018C0008A81808304C0E1E3F0E08A8180830F9005
:1018D0000F900F900F90CF91DF910895DF93CF93EA
:1018E00000D000D0CDB7DEB789836A838981282FE5
:1018F00030E03C832B838B819C8181309105D1F03A
:101900002B813C81223031052CF48B819C81009706
:1019100061F01EC02B813C812230310581F08B812A
:101920009C818330910581F013C0EBE3F0E08A8164
:1019300080830EC0E8E3F0E08A81808309C0E5E39C
:10194000F0E08A81808304C0E2E3F0E08A81808352
:101950000F900F900F900F90CF91DF910895DF932C
:10196000CF9300D00F92CDB7DEB79A8389836B8374
:10197000ECE3F0E08081882F90E082709070009717
:10198000B9F789819A816B810E940224ECE3F0E02F
:101990008081882F90E0827090700097B9F70F9047
:1019A0000F900F90CF91DF910895DF93CF9300D0E8
:1019B000CDB7DEB79A83898389819A810E94FA2301
:1019C0000F900F90CF91DF910895DF93CF93CDB714
:1019D000DEB72B970FB6F894DEBF0FBECDBF8A835C
:1019E0006B8381E089838B818E3051F08B818F30C6
:1019F00039F08B81803121F08B81813109F040C138
:101A00008A81882339F08A81813021F08A8182306D
:101A100009F036C18A81282F30E03B872A878A85E2
:101A20009B858130910509F484C02A853B8522304D
:101A3000310509F4F7C08A859B85009709F021C11B
:101A40008B81282F30E039872887888599858F30CA
:101A5000910569F1288539852031310534F488856F
:101A600099858E30910569F00CC128853985203122
:101A7000310599F1888599858131910509F443C033
:101A800000C1A5E5B0E0E5E5F0E0808182608C93DF
:101A9000A5E5B0E0E5E5F0E080818E7F8C93ABE5D5
:101AA000B0E0EBE5F0E0808180648C93EAC0A5E5CE
:101AB000B0E0E5E5F0E0808182608C93A5E5B0E0E0
:101AC000E5E5F0E0808181608C93ABE5B0E0EBE58B
:101AD000F0E0808180648C93D4C0A5E5B0E0E5E5BA
:101AE000F0E080818D7F8C93A5E5B0E0E5E5F0E046
:101AF000808181608C93ABE5B0E0EBE5F0E0808124
:101B000080648C93BEC0A5E5B0E0E5E5F0E080819F
:101B10008D7F8C93A5E5B0E0E5E5F0E080818E7FD8
:101B20008C93ABE5B0E0EBE5F0E0808180648C93D2
:101B3000A8C08B81282F30E03F832E838E819F8128
:101B40008F30910569F12E813F812031310534F4C8
:101B50008E819F818E30910569F093C02E813F81E7
:101B60002031310599F18E819F818131910509F4F0
:101B700043C087C0A5E5B0E0E5E5F0E0808188607E
:101B80008C93A5E5B0E0E5E5F0E080818B7F8C9358
:101B9000ABE5B0E0EBE5F0E0808180688C9371C04C
:101BA000A5E5B0E0E5E5F0E0808188608C93A5E5EF
:101BB000B0E0E5E5F0E0808184608C93ABE5B0E0D7
:101BC000EBE5F0E0808180688C935BC0A5E5B0E038
:101BD000E5E5F0E08081877F8C93A5E5B0E0E5E561
:101BE000F0E0808184608C93ABE5B0E0EBE5F0E061
:101BF000808180688C9345C0A5E5B0E0E5E5F0E024
:101C00008081877F8C93A5E5B0E0E5E5F0E08081F9
:101C10008B7F8C93ABE5B0E0EBE5F0E080818068F2
:101C20008C932FC08B81282F30E03D832C838C81B7
:101C30009D818E30910531F02C813D812F30310511
:101C400081F01FC0A4E5B0E0E4E5F0E080818F7B87
:101C50008C93ABE5B0E0EBE5F0E0808180628C93A3
:101C600010C0A4E5B0E0E4E5F0E0808180648C93EE
:101C7000ABE5B0E0EBE5F0E0808180628C9301C0E1
:101C8000198289812B960FB6F894DEBF0FBECDBFA7
:101C9000CF91DF910895DF93CF9300D000D0CDB7DF
:101CA000DEB78A8381E089838A81882331F08A8143
:101CB000813019F08A81823059F58A81282F30E0ED
:101CC0003C832B838B819C818130910589F02B8112
:101CD0003C8122303105A1F08B819C810097C9F4B1
:101CE000ABE5B0E0EBE5F0E080818F7B8C9311C039
:101CF000ABE5B0E0EBE5F0E080818F778C9309C035
:101D0000ABE5B0E0EBE5F0E080818F7D8C9301C026
:101D1000198289810F900F900F900F90CF91DF91D2
:101D20000895DF93CF9300D000D0CDB7DEB78A837C
:101D30007C836B8381E089838A81833088F48B8103
:101D40009C81009769F08A81882F90E0880F991F05
:101D5000FC01E352FC4F8B819C819183808301C005
:101D6000198289810F900F900F900F90CF91DF9182
:101D700008951F920F920FB60F9211242F933F9345
:101D80004F935F936F937F938F939F93AF93BF9383
:101D9000EF93FF93DF93CF93CDB7DEB78091DD0351
:101DA0009091DE03009729F0E091DD03F091DE03CE
:101DB0000995CF91DF91FF91EF91BF91AF919F91E5
:101DC0008F917F916F915F914F913F912F910F90E4
:101DD0000FBE0F901F9018951F920F920FB60F9283
:101DE00011242F933F934F935F936F937F938F9320
:101DF0009F93AF93BF93EF93FF93DF93CF93CDB7B1
:101E0000DEB78091DF039091E003009729F0E09125
:101E1000DF03F091E0030995CF91DF91FF91EF91FE
:101E2000BF91AF919F918F917F916F915F914F91F2
:101E30003F912F910F900FBE0F901F9018951F92FA
:101E40000F920FB60F9211242F933F934F935F93EE
:101E50006F937F938F939F93AF93BF93EF93FF9372
:101E6000DF93CF93CDB7DEB78091E1039091E2038A
:101E7000009729F0E091E103F091E2030995CF91F9
:101E8000DF91FF91EF91BF91AF919F918F917F91E2
:101E90006F915F914F913F912F910F900FBE0F90D7
:101EA0001F901895DF93CF93CDB7DEB7AFE5B0E0C5
:101EB000EFE5F0E0808180688C93CF91DF91089509
:101EC000DF93CF93CDB7DEB7AFE5B0E0EFE5F0E05D
:101ED00080818F778C93CF91DF910895DF93CF939B
:101EE000CDB7DEB7E0E2F0E088E48083E2E2F0E044
:101EF00082E08083E6E5F0E084E48083E1E2F0E0E4
:101F00001082A1E2B0E0E1E2F0E080818C7F8C936E
:101F1000CF91DF910895DF93CF93CDB7DEB7E6E59C
:101F2000F0E084EA8083E6E5F0E080818823DCF756
:101F3000CF91DF910895DF93CF93CDB7DEB7E6E57C
:101F4000F0E084E98083CF91DF910895DF93CF9310
:101F50000F92CDB7DEB78983E3E2F0E08981808319
:101F6000E6E5F0E084E88083E6E5F0E08081882320
:101F7000DCF70F90CF91DF910895DF93CF93CDB72A
:101F8000DEB7E6E5F0E084EC8083E6E5F0E0808112
:101F90008823DCF7E3E2F0E08081CF91DF910895C0
:101FA000DF93CF93CDB7DEB7E6E5F0E084E880833A
:101FB000E6E5F0E080818823DCF7E3E2F0E0808171
:101FC000CF91DF910895DF93CF930F92CDB7DEB716
:101FD000E1E2F0E08081887F898389810F90CF9151
:101FE000DF910895DF93CF93CDB7DEB780E064E053
:101FF00040E00E94250BCF91DF910895DF93CF93AE
:102000000F92CDB7DEB780E064E00E94A10A813074
:1020100019F481E0898301C0198289810F90CF91E1
:10202000DF910895DF93CF93CDB7DEB781E060E015
:1020300040E00E94250B81E061E040E00E94250B1A
:1020400081E062E040E00E94250B81E063E040E037
:102050000E94250B81E060E041E00E94990981E047
:1020600061E041E00E94990981E062E041E00E9464
:10207000990981E063E041E00E94990981E064E010
:1020800041E00E94250B81E065E041E00E94250BC4
:1020900081E066E041E00E94250B81E067E041E0DD
:1020A0000E94250B81E064E041E00E94990981E0F3
:1020B00065E041E00E94990981E066E041E00E940C
:1020C000990981E067E041E00E949909CF91DF9191
:1020D0000895DF93CF93CDB7DEB7E7970FB6F894A7
:1020E000DEBF0FBECDBF198A188A81E08A8B81E0DE
:1020F0008B8B81E08C8B81E08D8B1E8A81E08F8BB6
:1021000082E0888F83E0898F81E08A8F81E08B8FE6
:1021100081E08C8F81E08D8F84E08E8F85E08F8FC2
:1021200086E088A387E089A3188A49C18889282F77
:1021300030E0CE014A96FC01E20FF31F408188890E
:10214000282F30E0CE014E96FC01E20FF31F908164
:10215000842F692F40E00E949909198A12C1898948
:10216000282F30E0CE014296FC01E20FF31F4081A0
:102170008989282F30E0CE014696FC01E20FF31F3B
:102180009081842F692F0E94A10A8F878F858823D1
:1021900009F0F4C080E090E0A8E4B2E48B879C876B
:1021A000AD87BE876B857C858D859E8520E030E080
:1021B0004AEF54E40E941F02DC01CB018F83988711
:1021C000A987BA876F81788589859A8520E030E074
:1021D00040E85FE30E94790388232CF481E090E0DB
:1021E0009E838D833FC06F81788589859A8520E0A5
:1021F0003FEF4FE757E40E94190318164CF56B8523
:102200007C858D859E8520E030E040E251E40E948F
:102210001F02DC01CB01BC01CD010E944900DC01A1
:10222000CB019E838D830FC088EC90E09C838B83D1
:102230008B819C810197F1F79C838B838D819E819B
:1022400001979E838D838D819E81009769F714C0CD
:102250006F81788589859A850E944900DC01CB01D0
:102260009E838D838D819E819A83898389819A81C2
:102270000197F1F79A8389838989282F30E0CE016D
:102280004296FC01E20FF31F40818989282F30E03C
:10229000CE014696FC01E20FF31F9081842F692F37
:1022A0000E94A10A8F878F85882309F067C08989DA
:1022B000282F30E0CE014296FC01E20FF31F40814F
:1022C0008989282F30E0CE014696FC01E20FF31FEA
:1022D0009081842F692F0E94A10A8F8717C0898956
:1022E000282F30E0CE014296FC01E20FF31F40811F
:1022F0008989282F30E0CE014696FC01E20FF31FBA
:102300009081842F692F0E94A10A8F878F8588234F
:1023100031F3CE0182969CAB8BABEAECF3E0FEABE3
:10232000EDABF0E1FFABEDA9FEA900808DA99EA960
:1023300001969EAB8DABEBA9FCA900828BA99CA951
:1023400001969CAB8BAB9FA991509FABEFA9EE235D
:1023500051F78989282F30E08889482F50E0220FD3
:10236000331F220F331FCE010196820F931F840F5C
:10237000951FFC01B19680818AAB27C089898F5F48
:10238000898B8989843008F4EACE8889282F30E047
:10239000CE014A96FC01E20FF31F40818889282F65
:1023A00030E0CE014E96FC01E20FF31F9081842FA6
:1023B000692F41E00E94990988898F5F888B8889FD
:1023C000843008F4B3CE9FEF9AAB8AA9E7960FB694
:1023D000F894DEBF0FBECDBFCF91DF910895DF939C
:1023E000CF93CDB7DEB7ADE2B0E0EDE2F0E08081B3
:1023F00080618C93ADE2B0E0EDE2F0E0808181603D
:102400008C93ADE2B0E0EDE2F0E080818D7F8C93C3
:10241000AEE2B0E0EEE2F0E080818E7F8C93ADE240
:10242000B0E0EDE2F0E0808180648C93CF91DF91A9
:102430000895DF93CF93CDB7DEB7ADE2B0E0EDE224
:10244000F0E080818F7E8C93ADE2B0E0EDE2F0E0D1
:10245000808180648C93CF91DF910895DF93CF9337
:102460000F92CDB7DEB78983EFE2F0E089818083F8
:10247000EEE2F0E080818823DCF7EFE2F0E080819B
:102480000F90CF91DF910895DF93CF9300D00F92FB
:10249000CDB7DEB789838981813021F0898182308F
:1024A00009F06DC08981282F30E03B832A838A811F
:1024B0009B818130910531F02A813B8122303105A9
:1024C00081F15DC0A3E5B0E0E3E5F0E080818F7BC2
:1024D0008C93A3E5B0E0E3E5F0E08081877F8C9307
:1024E000A9E5B0E0E9E5F0E0808181608C93E2E568
:1024F000F0E080EC8083A3E5B0E0E3E5F0E08081EC
:102500008B7F8C93A3E5B0E0E3E5F0E0808182600F
:102510008C93A3E5B0E0E3E5F0E080818E7F8C93BF
:102520002EC0A3E5B0E0E3E5F0E080818F7B8C93E3
:10253000A3E5B0E0E3E5F0E0808188608C93A9E555
:10254000B0E0E9E5F0E0808182608C93A3E5B0E043
:10255000E3E5F0E080818B7F8C93A3E5B0E0E3E5D9
:10256000F0E0808182608C93A3E5B0E0E3E5F0E0E9
:1025700080818E7F8C93ECE5F0E083E680830F9082
:102580000F900F90CF91DF910895DF93CF9300D0FC
:1025900000D000D0CDB7DEB79B838A836C8381E007
:1025A00089838C81813019F08C81823031F58C8166
:1025B000282F30E03E832D838D819E8181309105CF
:1025C00031F02D813E812230310561F017C08A81C2
:1025D0009B81009799F08A819B819093E40380937B
:1025E000E3030CC08A819B81009741F08A819B8123
:1025F0009093E6038093E50301C0198289812696B2
:102600000FB6F894DEBF0FBECDBFCF91DF91089516
:102610001F920F920FB60F9211242F933F934F9357
:102620005F936F937F938F939F93AF93BF93EF933A
:10263000FF93DF93CF93CDB7DEB78091E7039091FF
:10264000E80301969093E8038093E7038091E70302
:102650009091E8032FE08334920799F4E2E5F0E0EB
:1026600080EC80831092E8031092E7038091E303EB
:102670009091E403009729F0E091E303F091E403E3
:102680000995CF91DF91FF91EF91BF91AF919F910C
:102690008F917F916F915F914F913F912F910F900B
:1026A0000FBE0F901F9018951F920F920FB60F92AA
:1026B00011242F933F934F935F936F937F938F9347
:1026C0009F93AF93BF93EF93FF93DF93CF93CDB7D8
:1026D000DEB78091E9039091EA0301969093EA03B3
:1026E0008093E9038091E9039091EA0327E2803126
:1026F000920779F41092EA031092E9038091E503BE
:102700009091E603009729F0E091E503F091E6034C
:102710000995CF91DF91FF91EF91BF91AF919F917B
:102720008F917F916F915F914F913F912F910F907A
:102730000FBE0F901F901895DF93CF93CDB7DEB7E4
:10274000E9E2F0E083E38083E0E4F0E01082A0E4DB
:10275000B0E0E0E4F0E0808182608C93A0E4B0E03F
:10276000E0E4F0E0808184608C93AAE2B0E0EAE2E9
:10277000F0E080818B7F8C93A0E4B0E0E0E4F0E0B7
:1027800080818F7E8C93A0E4B0E0E0E4F0E0808173
:102790008F7D8C93A0E4B0E0E0E4F0E08081877F5F
:1027A0008C93AAE2B0E0EAE2F0E0808188608C934A
:1027B000AAE2B0E0EAE2F0E0808180618C93CF9100
:1027C000DF910895DF93CF930F92CDB7DEB7898362
:1027D000EBE2F0E08081829586958770882F90E00B
:1027E000817090700097A1F3ECE2F0E08981808322
:1027F0000F90CF91DF910895DF93CF93CDB7DEB7E0
:10280000EBE2F0E080818823DCF7ECE2F0E080810D
:10281000CF91DF910895DF93CF9300D0CDB7DEB78E
:102820009A83898317C0EBE2F0E0808182958695D8
:102830008770882F90E0817090700097A1F3ACE2D0
:10284000B0E0E981FA8180818C9389819A81019637
:102850009A838983E981FA818081882321F70F9007
:102860000F90CF91DF910895DF93CF9300D000D0E8
:10287000CDB7DEB79C838B831A820E94FC138983B9
:1028800089818D3019F089818A3081F48A81282FDD
:1028900030E08B819C81FC01E20FF31F10820F90CE
:1028A0000F900F900F90CF91DF9108958A81282F7C
:1028B00030E08B819C81FC01E20FF31F89818083D2
:1028C0008A818F5F8A83D9CFDF93CF93CDB7DEB76D
:1028D000EBE2F0E080818078CF91DF9108950F9353
:1028E0001F93DF93CF93CDB7DEB7CB5DD0400FB64C
:1028F000F894DEBF0FBECDBF0E9476090E94160875
:102900000E94A3050E949C130E94520F0E94121065
:10291000FE01ED52FF4F11821082FE01EF52FF4F78
:1029200011821082FE01E053FF4F1082FE01E1533D
:10293000FF4F8FEF808381E08093F3032BEC32E233
:1029400081E0B9010E94910E81E060E10E94E50CF6
:1029500080E690E00E94A40882E062E00E94D7082E
:1029600081E790E00E94A4088DE00E94E2138DE7C9
:1029700090E00E940B148DE00E94E2130E94FC1371
:102980008093F1038091F1030E94E2138DE00E9495
:10299000E2135CC69E0128523F4F83E0B9010E94BA
:1029A000E205FE01E852FF4F80819181CC01A0E059
:1029B000B0E028E833E140E050E0BC01CD010E94E6
:1029C0009023DC01CB01072E7AE0B695A795979569
:1029D00087957A95D1F7702DFE01E353FF4F9183D0
:1029E00080838E0105531F4FFE01E353FF4F80810B
:1029F00091812AE030E0B9010E94AF23CB01F801B8
:102A0000918380838091F203893309F494C687EF20
:102A100090E00E940B148DE00E94E2130E94FC13D0
:102A20008093F2038091F2030E94E2138DE00E94F2
:102A3000E213FE01E553FF4F808191818F319105B3
:102A400008F0F1C28091F203893309F4ECC28FE4FB
:102A500091E00E940B148DE00E94E2138091F2033A
:102A6000853359F48091C803882339F489E591E0CE
:102A70000E940B148DE00E94E2138091F2038633D2
:102A800059F48091C803813039F482E791E00E94C3
:102A90000B148DE00E94E2138091F203853309F05C
:102AA000D9C18091C803813009F0D4C11092C80304
:102AB0008BE891E00E940B148DE00E94E2130E94CB
:102AC0002109FE01EF53FF4F80E090E0A8E4B3E45A
:102AD00080839183A283B3838E0103541F4FFE0131
:102AE000EF53FF4F608171818281938120E030E05C
:102AF0004AEF54E40E941F02DC01CB01F8018083FD
:102B00009183A283B383FE01E354FF4F60817181FF
:102B10008281938120E030E040E85FE30E94790306
:102B2000882344F4FE01E554FF4F81E090E0918357
:102B3000808364C0FE01E354FF4F60817181828114
:102B4000938120E03FEF4FE757E40E9419031816E6
:102B50000CF043C0FE01EF53FF4F60817181828111
:102B6000938120E030E040E251E40E941F02DC014A
:102B7000CB018E0105541F4FBC01CD010E944900BD
:102B8000DC01CB01F801918380831FC0FE01E75473
:102B9000FF4F88EC90E091838083FE01E754FF4F64
:102BA000808191810197F1F7FE01E754FF4F9183F6
:102BB0008083DE01A554BF4FFE01E554FF4F8081A5
:102BC0009181019711969C938E93FE01E554FF4FDE
:102BD000808191810097D1F627C08E0105541F4F47
:102BE000FE01E354FF4F60817181828193810E94D5
:102BF0004900DC01CB01F80191838083DE01A954F7
:102C0000BF4FFE01E554FF4F808191818D939C93CE
:102C1000FE01E954FF4F808191810197F1F7FE0198
:102C2000E954FF4F9183808387EF90E00E940B145B
:102C30008DE00E94E213FFC00E9432090E94FC1343
:102C40008093F2038091F2030E94E2138DE00E94D0
:102C5000E2138091F203853391F48091C8038823B5
:102C600071F489E591E00E940B148DE00E94E2135B
:102C700087EF90E00E940B148DE00E94E213809198
:102C8000F203863309F0D7C08091F203863359F4FA
:102C90008091C803813039F48DE991E00E940B14D2
:102CA0008DE00E94E21381E08093C8038FE491E0FD
:102CB0000E940B148DE00E94E21385EB91E00E94CC
:102CC0000B148DE00E94E2130E941009FE01ED54E6
:102CD000FF4F80E090E0A8E4B3E480839183A28377
:102CE000B3838E0101551F4FFE01ED54FF4F6081EC
:102CF00071818281938120E030E04AEF54E40E94A8
:102D00001F02DC01CB01F80180839183A283B3838E
:102D1000FE01E155FF4F608171818281938120E046
:102D200030E040E85FE30E947903882344F4FE0129
:102D3000E355FF4F81E090E09183808364C0FE0102
:102D4000E155FF4F608171818281938120E03FEFE7
:102D50004FE757E40E94190318160CF043C0FE0118
:102D6000ED54FF4F608171818281938120E030E0DA
:102D700040E251E40E941F02DC01CB018E010355A9
:102D80001F4FBC01CD010E944900DC01CB01F801BD
:102D9000918380831FC0FE01E555FF4F88EC90E0D2
:102DA00091838083FE01E555FF4F808191810197DA
:102DB000F1F7FE01E555FF4F91838083DE01A355B6
:102DC000BF4FFE01E355FF4F80819181019711961E
:102DD0009C938E93FE01E355FF4F80819181009774
:102DE000D1F627C08E0103551F4FFE01E155FF4F5D
:102DF00060817181828193810E944900DC01CB0155
:102E0000F80191838083DE01A755BF4FFE01E35592
:102E1000FF4F808191818D939C93FE01E755FF4F79
:102E2000808191810197F1F7FE01E755FF4F918372
:102E300080830E943209FE01E553FF4F808191811A
:102E40008F31910508F002C48091F203853309F4B3
:102E5000F3CEFCC38091F203863309F0F7C380916F
:102E6000C803882309F0F2C38091F203863359F432
:102E70008091C803813039F48DE991E00E940B14F0
:102E80008DE00E94E21381E08093C8038091F203F9
:102E90000E94E2138DE00E94E21385EB91E00E9414
:102EA0000B148DE00E94E2130E941009FE01EB5505
:102EB000FF4F80E090E0A8E4B3E480839183A28395
:102EC000B3838E010F551F4FFE01EB55FF4F6081FD
:102ED00071818281938120E030E04AEF54E40E94C6
:102EE0001F02DC01CB01F80180839183A283B383AD
:102EF000FE01EF55FF4F608171818281938120E057
:102F000030E040E85FE30E947903882344F4FE0147
:102F1000E156FF4F81E090E09183808364C0FE0121
:102F2000EF55FF4F608171818281938120E03FEFF7
:102F30004FE757E40E94190318160CF043C0FE0136
:102F4000EB55FF4F608171818281938120E030E0F9
:102F500040E251E40E941F02DC01CB018E010156C8
:102F60001F4FBC01CD010E944900DC01CB01F801DB
:102F7000918380831FC0FE01E356FF4F88EC90E0F1
:102F800091838083FE01E356FF4F808191810197F9
:102F9000F1F7FE01E356FF4F91838083DE01A156D6
:102FA000BF4FFE01E156FF4F80819181019711963D
:102FB0009C938E93FE01E156FF4F80819181009793
:102FC000D1F627C08E0101561F4FFE01EF55FF4F6E
:102FD00060817181828193810E944900DC01CB0173
:102FE000F80191838083DE01A556BF4FFE01E156B3
:102FF000FF4F808191818D939C93FE01E556FF4F99
:10300000808191810197F1F7FE01E556FF4F918391
:1030100080830E94320987EF90E00E940B148DE0BC
:103020000E94E21313C3FE01E553FF4F808191819B
:103030008F31910508F40AC38DE00E94E21387ECFA
:1030400091E00E940B148DE00E94E2138091F20344
:10305000883359F48091C803882339F480ED91E0D6
:103060000E940B148DE00E94E2138091F2038733DB
:1030700059F48091C803813039F48DE991E00E94C0
:103080000B148DE00E94E2138091C903813029F076
:103090008091C903882309F0D9C28091F203873354
:1030A00009F0F5C18091C803882309F0F0C180912F
:1030B000C903813009F0EBC181E08093C80385EB3F
:1030C00091E00E940B148DE00E94E2130E9410090F
:1030D000FE01E956FF4F80E090E0A8E4B3E480836E
:1030E0009183A283B3838E010D561F4FFE01E956D3
:1030F000FF4F608171818281938120E030E04AEF4F
:1031000054E40E941F02DC01CB01F801808391830B
:10311000A283B383FE01ED56FF4F608171818281EE
:10312000938120E030E040E85FE30E947903882348
:1031300044F4FE01EF56FF4F81E090E091838083DD
:1031400064C0FE01ED56FF4F6081718182819381E1
:1031500020E03FEF4FE757E40E94190318160CF0E8
:1031600043C0FE01E956FF4F6081718182819381E6
:1031700020E030E040E251E40E941F02DC01CB017C
:103180008E010F561F4FBC01CD010E944900DC018A
:10319000CB01F801918380831FC0FE01E157FF4FEF
:1031A00088EC90E091838083FE01E157FF4F80819E
:1031B00091810197F1F7FE01E157FF4F91838083E1
:1031C000DE01AF56BF4FFE01EF56FF4F8081918168
:1031D000019711969C938E93FE01EF56FF4F8081CD
:1031E00091810097D1F627C08E010F561F4FFE0127
:1031F000ED56FF4F60817181828193810E94490069
:10320000DC01CB01F80191838083DE01A357BF4F1E
:10321000FE01EF56FF4F808191818D939C93FE01BB
:10322000E357FF4F808191810197F1F7FE01E3574A
:10323000FF4F918380830E9432098DE00E94E21348
:1032400012C18091F2030E94E2138DE00E94E2130A
:1032500087EC91E00E940B148DE00E94E2138091B4
:10326000F203873379F48091C803813059F4809157
:10327000C903882339F48DE991E00E940B148DE095
:103280000E94E21387EF90E00E940B148DE00E94F1
:10329000E2130E9432090E94FC138093F203809192
:1032A000F203883309F0DFC0FE01E553FF4F808150
:1032B00091818F31910508F4D6C08091F203883353
:1032C00059F48091C803882339F480ED91E00E947D
:1032D0000B148DE00E94E2131092C8038091F20358
:1032E0000E94E2138DE00E94E2138BE891E00E94BD
:1032F0000B148DE00E94E2130E942109FE01E757A2
:10330000FF4F80E090E0A8E4B3E480839183A28340
:10331000B3838E010B571F4FFE01E757FF4F6081AC
:1033200071818281938120E030E04AEF54E40E9471
:103330001F02DC01CB01F80180839183A283B38358
:10334000FE01EB57FF4F608171818281938120E004
:1033500030E040E85FE30E947903882344F4FE01F3
:10336000ED57FF4F81E090E09183808364C0FE01C0
:10337000EB57FF4F608171818281938120E03FEFA5
:103380004FE757E40E94190318160CF043C0FE01E2
:10339000E757FF4F608171818281938120E030E0A7
:1033A00040E251E40E941F02DC01CB018E010D5767
:1033B0001F4FBC01CD010E944900DC01CB01F80187
:1033C000918380831FC0FE01EF57FF4F88EC90E090
:1033D00091838083FE01EF57FF4F80819181019798
:1033E000F1F7FE01EF57FF4F91838083DE01AD5768
:1033F000BF4FFE01ED57FF4F8081918101971196DC
:103400009C938E93FE01ED57FF4F80819181009731
:10341000D1F627C08E010D571F4FFE01EB57FF4F0E
:1034200060817181828193810E944900DC01CB011E
:10343000F80191838083DE01A158BF4FFE01ED5753
:10344000FF4F808191818D939C93FE01E158FF4F46
:10345000808191810197F1F7FE01E158FF4F91833F
:1034600080830E943209FE01E553FF4F80819181E4
:103470008F31910508F4EAC08091F203873309F097
:10348000E5C08091C903882309F4DBCEDFC08091B9
:10349000F203883309F0D5C08091C803813009F068
:1034A000D0C08091F203883359F48091C8038823F7
:1034B00039F480ED91E00E940B148DE00E94E2133C
:1034C0001092C8038BE891E00E940B148DE00E94DB
:1034D000E2130E942109FE01E558FF4F80E090E0D1
:1034E000A8E4B3E480839183A283B3838E01095857
:1034F0001F4FFE01E558FF4F6081718182819381EA
:1035000020E030E04AEF54E40E941F02DC01CB01CE
:10351000F80180839183A283B383FE01E958FF4FB2
:10352000608171818281938120E030E040E85FE337
:103530000E947903882344F4FE01EB58FF4F81E099
:1035400090E09183808364C0FE01E958FF4F608161
:1035500071818281938120E03FEF4FE757E40E9421
:10356000190318160CF043C0FE01E558FF4F6081A7
:1035700071818281938120E030E040E251E40E9439
:103580001F02DC01CB018E010B581F4FBC01CD0186
:103590000E944900DC01CB01F801918380831FC0A8
:1035A000FE01ED58FF4F88EC90E091838083FE018F
:1035B000ED58FF4F808191810197F1F7FE01ED58A1
:1035C000FF4F91838083DE01AB58BF4FFE01EB5864
:1035D000FF4F80819181019711969C938E93FE01FC
:1035E000EB58FF4F808191810097D1F627C08E0163
:1035F0000B581F4FFE01E958FF4F60817181828196
:1036000093810E944900DC01CB01F8019183808302
:10361000DE01AF58BF4FFE01EB58FF4F8081918113
:103620008D939C93FE01EF58FF4F8081918101970C
:10363000F1F7FE01EF58FF4F918380830E9432091A
:1036400005C08091F103893309F475C08091F103BD
:10365000813309F070C08091F103893309F09AC970
:103660006AC08091F003882399F48AEE91E00E9469
:103670000B148DE00E94E21386EF91E00E940B1480
:103680008DE00E94E2138091F0038F5F8093F0033E
:103690009E0126523F4F87E0B9010E94E205FE01DC
:1036A000E652FF4F80819181CC01A0E0B0E028E894
:1036B00033E140E050E0BC01CD010E949023DC01E9
:1036C000CB01072E7AE0B695A795979587957A95C1
:1036D000D1F7702DFE01E753FF4F91838083FE01E8
:1036E000E753FF4F80819181FBE0893B9F0730F4D6
:1036F00080E065E041E00E9499090EC0FE01E753B9
:10370000FF4F808191812BE0893B920728F080E078
:1037100065E040E00E9499090E946414882359F0F2
:103720000E94FC138093F1038091F1030E94E21345
:103730008DE00E94E2138091F103823309F045C0CD
:103740008091F103893309F08CCF3FC08091EF0362
:10375000882399F486E292E00E940B148DE00E9487
:10376000E21382E392E00E940B148DE00E94E213C8
:103770008091EF038F5F8093EF030E94F20F0E940E
:10378000FE0F8093EE038091EE03813031F480E0F0
:1037900066E041E00E94990909C08091EE03882308
:1037A00029F480E066E040E00E9499090E946414D8
:1037B000882359F00E94FC138093F1038091F10358
:1037C0000E94E2138DE00E94E2138091F1038333A3
:1037D00009F0CEC68091F103893309F0B7CFC8C68E
:1037E0000E94CD088091ED03882399F482E692E04F
:1037F0000E940B148DE00E94E2138EE692E00E947C
:103800000B148DE00E94E2138091ED038F5F809393
:10381000ED03FE01ED52FF4F808191810E94D50C96
:103820008F3F09F0F6C181E063E00E94D7088EE97E
:1038300092E00E94A40882E063E00E94D70889EA2F
:1038400092E00E94A408FE01E359FF4F80E090E05F
:10385000A8E4B3E480839183A283B3838E010759E4
:103860001F4FFE01E359FF4F608171818281938177
:1038700020E030E04AEF54E40E941F02DC01CB015B
:10388000F80180839183A283B383FE01E759FF4F40
:10389000608171818281938120E030E040E85FE3C4
:1038A0000E947903882344F4FE01E959FF4F81E027
:1038B00090E09183808364C0FE01E759FF4F6081EF
:1038C00071818281938120E03FEF4FE757E40E94AE
:1038D000190318160CF043C0FE01E359FF4F608135
:1038E00071818281938120E030E040E251E40E94C6
:1038F0001F02DC01CB018E0109591F4FBC01CD0114
:103900000E944900DC01CB01F801918380831FC034
:10391000FE01EB59FF4F88EC90E091838083FE011C
:10392000EB59FF4F808191810197F1F7FE01EB592F
:10393000FF4F91838083DE01A959BF4FFE01E959F2
:10394000FF4F80819181019711969C938E93FE0188
:10395000E959FF4F808191810097D1F627C08E01F0
:1039600009591F4FFE01E759FF4F60817181828124
:1039700093810E944900DC01CB01F801918380838F
:10398000DE01AD59BF4FFE01E959FF4F80819181A2
:103990008D939C93FE01ED59FF4F8081918101979A
:1039A000F1F7FE01ED59FF4F918380830E94CD080E
:1039B00084EB92E00E94A40882E060E00E94D708B5
:1039C00083EC92E00E94A408FE01E853FF4F1082AE
:1039D0005CC0FE01E153FF4F8FEF808306C00E9461
:1039E0006910FE01E153FF4F8083FE01E153FF4F59
:1039F00080818F3FA1F3FE01E853FF4F8081282F84
:103A000030E0CE018B529F4FDC01A20FB31FFE01AD
:103A1000E153FF4F80818C93FE01E853FF4F80817B
:103A2000982F955F82E0692F0E94D708FE01E1532D
:103A3000FF4F80810E947807FE01E853FF4F80818D
:103A4000282F30E0CE018B529F4FFC01E20FF31F75
:103A50002081FE01ED52FF4F80819181622F0E94F3
:103A6000AF0CDE01AD52BF4FFE01ED52FF4F808122
:103A7000918101968D939C93DE01A853BF4FFE0167
:103A8000E853FF4F80818F5F8C93FE01E853FF4F17
:103A90008081843008F49DCF0E94CD0881E063E0EE
:103AA0000E94D7088FEC92E00E94A408FE01E15A20
:103AB000FF4F80E090E0A8E4B3E480839183A28389
:103AC000B3838E01055A1F4FFE01E15AFF4F6081FB
:103AD00071818281938120E030E04AEF54E40E94BA
:103AE0001F02DC01CB01F80180839183A283B383A1
:103AF000FE01E55AFF4F608171818281938120E050
:103B000030E040E85FE30E947903882344F4FE013B
:103B1000E75AFF4F81E090E09183808364C0FE010B
:103B2000E55AFF4F608171818281938120E03FEFF0
:103B30004FE757E40E94190318160CF043C0FE012A
:103B4000E15AFF4F608171818281938120E030E0F2
:103B500040E251E40E941F02DC01CB018E01075AB2
:103B60001F4FBC01CD010E944900DC01CB01F801CF
:103B7000918380831FC0FE01E95AFF4F88EC90E0DB
:103B800091838083FE01E95AFF4F808191810197E3
:103B9000F1F7FE01E95AFF4F91838083DE01A75AB6
:103BA000BF4FFE01E75AFF4F808191810197119627
:103BB0009C938E93FE01E75AFF4F8081918100977D
:103BC000D1F627C08E01075A1F4FFE01E55AFF4F5D
:103BD00060817181828193810E944900DC01CB0167
:103BE000F80191838083DE01AB5ABF4FFE01E75A93
:103BF000FF4F808191818D939C93FE01EB5AFF4F83
:103C0000808191810197F1F7FE01EB5AFF4F91837B
:103C100080830E94CD088AED92E00E94A40882E091
:103C200060E00E94D70888EE92E00E94A408FE019E
:103C3000E153FF4F8FEF808306C00E946910FE01A1
:103C4000E153FF4F8083FE01E153FF4F80818F3F9F
:103C5000A1F3FE01E153FF4F8081803379F40E948C
:103C6000CD0888EF92E00E94A40882E060E00E9404
:103C7000D70883E093E00E94A40814C0FE01E1533A
:103C8000FF4F8081813371F40E94CD088FE093E073
:103C90000E94A40882E060E00E94D70883E093E0DD
:103CA0000E94A408FE01E953FF4F108267C0FE0185
:103CB000E153FF4F8FEF808306C00E946910FE0121
:103CC000E153FF4F8083FE01E153FF4F80818F3F1F
:103CD000A1F3FE01E953FF4F8081282F30E0CE0190
:103CE0008B529F4FDC01A20FB31FFE01E153FF4F28
:103CF00080818C93FE01E953FF4F8081982F955F5F
:103D000082E0692F0E94D708FE01E153FF4F8081B6
:103D10000E947807FE01EF52FF4F808191810E943F
:103D2000D50C482FFE01E953FF4F8081282F30E04A
:103D3000CE018B529F4FFC01E20FF31F8081481789
:103D400049F4DE01A053BF4FFE01E053FF4F8081D5
:103D50008F5F8C93DE01AF52BF4FFE01EF52FF4FDA
:103D60008081918101968D939C93DE01A953BF4F71
:103D7000FE01E953FF4F80818F5F8C93FE01E95371
:103D8000FF4F8081843008F492CF0E94CD08FE015D
:103D9000E053FF4F8081843009F0C1C081E062E0D0
:103DA0000E94D7088AE193E00E94A40881E08093F2
:103DB000EB03FE01EF5AFF4F80E090E0A8E4B3E48C
:103DC00080839183A283B3838E01035B1F4FFE0127
:103DD000EF5AFF4F608171818281938120E030E052
:103DE0004AEF54E40E941F02DC01CB01F8018083FA
:103DF0009183A283B383FE01E35BFF4F60817181F6
:103E00008281938120E030E040E85FE30E94790303
:103E1000882344F4FE01E55BFF4F81E090E091834D
:103E2000808364C0FE01E35BFF4F6081718182810A
:103E3000938120E03FEF4FE757E40E9419031816E3
:103E40000CF043C0FE01EF5AFF4F60817181828107
:103E5000938120E030E040E251E40E941F02DC0147
:103E6000CB018E01055B1F4FBC01CD010E944900B3
:103E7000DC01CB01F801918380831FC0FE01E75B69
:103E8000FF4F88EC90E091838083FE01E75BFF4F5A
:103E9000808191810197F1F7FE01E75BFF4F9183EC
:103EA0008083DE01A55BBF4FFE01E55BFF4F808194
:103EB0009181019711969C938E93FE01E55BFF4FD4
:103EC000808191810097D1F627C08E01055B1F4F3D
:103ED000FE01E35BFF4F60817181828193810E94CB
:103EE0004900DC01CB01F80191838083DE01A95BED
:103EF000BF4FFE01E55BFF4F808191818D939C93C5
:103F0000FE01E95BFF4F808191810197F1F7FE018E
:103F1000E95BFF4F918380830E94CD08A6C1FE011B
:103F2000E053FF4F8081843009F49FC1FE01EA53C2
:103F3000FF4F108293C1FE01E053FF4F1082FE013C
:103F4000EF52FF4F1182108281E062E00E94D70899
:103F500087E293E00E94A40882E060E00E94D70814
:103F600082E393E00E94A408FE01ED5BFF4F80E036
:103F700090E0A8E4B3E480839183A283B3838E01AD
:103F8000015C1F4FFE01ED5BFF4F608171818281FB
:103F9000938120E030E04AEF54E40E941F02DC01EC
:103FA000CB01F80180839183A283B383FE01FF9646
:103FB000608171818281938120E030E040E85FE39D
:103FC0000E94790388232CF481E090E09EAF8DAFAE
:103FD00046C0FE01FF96608171818281938120E05D
:103FE0003FEF4FE757E40E941903181664F5FE01EE
:103FF000ED5BFF4F608171818281938120E030E031
:1040000040E251E40E941F02DC01CB01BC01CD0162
:104010000E944900DC01CB019EAF8DAF0FC088EC40
:1040200090E09CAF8BAF8BAD9CAD0197F1F79CAF4F
:104030008BAF8DAD9EAD01979EAF8DAF8DAD9EAD1B
:10404000009769F716C0FE01FF9660817181828139
:1040500093810E944900DC01CB019EAF8DAF8DADF5
:104060009EAD9AAF89AF89AD9AAD0197F1F79AAF3E
:1040700089AF0E94CD08FE01EB53FF4F108257C05D
:10408000FE01E153FF4F8FEF808306C00E9469104D
:10409000FE01E153FF4F8083FE01E153FF4F80811A
:1040A0008F3FA1F3FE01EB53FF4F8081282F30E0BB
:1040B000CE018B529F4FDC01A20FB31FFE01E153D3
:1040C000FF4F80818C93FE01EF52FF4F80819181E1
:1040D0000E94D50C482FFE01EB53FF4F8081282F03
:1040E00030E0CE018B529F4FFC01E20FF31F808125
:1040F000481749F4DE01A053BF4FFE01E053FF4FC4
:1041000080818F5F8C93DE01AF52BF4FFE01EF5273
:10411000FF4F8081918101968D939C93DE01AB537B
:10412000BF4FFE01EB53FF4F80818F5F8C93FE01E9
:10413000EB53FF4F8081843008F4A2CFFE01E0539F
:10414000FF4F8081843009F080C081E062E00E94EE
:10415000D7088AE193E00E94A40881E08093EB03F2
:1041600080E090E0A8E4B3E48DAB9EABAFABB8AF1A
:104170006DA97EA98FA998AD20E030E04AEF54E404
:104180000E941F02DC01CB0189AB9AABABABBCAB8D
:1041900069A97AA98BA99CA920E030E040E85FE3F7
:1041A0000E94790388232CF481E090E098AB8FA7DC
:1041B0003FC069A97AA98BA99CA920E03FEF4FE7EE
:1041C00057E40E94190318164CF56DA97EA98FA912
:1041D00098AD20E030E040E251E40E941F02DC0193
:1041E000CB01BC01CD010E944900DC01CB0198ABA1
:1041F0008FA70FC088EC90E09EA78DA78DA59EA5E8
:104200000197F1F79EA78DA78FA598A9019798AB65
:104210008FA78FA598A9009769F714C069A97AA9F3
:104220008BA99CA90E944900DC01CB0198AB8FA708
:104230008FA598A99CA78BA78BA59CA50197F1F7A3
:104240009CA78BA70E94CD0810C0DE01AA53BF4FC8
:10425000FE01EA53FF4F80818F5F8C93FE01EA538A
:10426000FF4F8081833008F466CE8091EB0381306C
:1042700009F06FC10E94430983E493E00E94A408FF
:1042800080E090E0A8E4B3E48FA398A7A9A7BAA719
:104290006FA178A589A59AA520E030E04AEF54E403
:1042A0000E941F02DC01CB018BA39CA3ADA3BEA384
:1042B0006BA17CA18DA19EA120E030E040E85FE3EE
:1042C0000E94790388232CF481E090E09AA389A3CB
:1042D0003FC06BA17CA18DA19EA120E03FEF4FE7E5
:1042E00057E40E94190318164CF56FA178A589A50B
:1042F0009AA520E030E040E251E40E941F02DC0178
:10430000CB01BC01CD010E944900DC01CB019AA385
:1043100089A30FC088EC90E098A38F8F8F8D98A110
:104320000197F1F798A38F8F89A19AA101979AA37A
:1043300089A389A19AA1009769F714C06BA17CA1F8
:104340008DA19EA10E944900DC01CB019AA389A303
:1043500089A19AA19E8F8D8F8D8D9E8D0197F1F7EA
:104360009E8F8D8F0E9465090E94CD0881E0809309
:10437000EC0380E090E0A8E4B3E4898F9A8FAB8FE0
:10438000BC8F698D7A8D8B8D9C8D20E030E04AEF5B
:1043900054E40E941F02DC01CB018D8B9E8BAF8BFE
:1043A000B88F6D897E898F89988D20E030E040E854
:1043B0005FE30E94790388232CF481E090E09C8BDA
:1043C0008B8B3FC06D897E898F89988D20E03FEF70
:1043D0004FE757E40E94190318164CF5698D7A8D42
:1043E0008B8D9C8D20E030E040E251E40E941F0262
:1043F000DC01CB01BC01CD010E944900DC01CB01F5
:104400009C8B8B8B0FC088EC90E09A8B898B898971
:104410009A890197F1F79A8B898B8B899C890197EF
:104420009C8B8B8B8B899C89009769F714C06D8955
:104430007E898F89988D0E944900DC01CB019C8B7D
:104440008B8B8B899C89988B8F878F859889019717
:10445000F1F7988B8F870E94540982E593E00E94C0
:10446000A40880E090E0A8E4B3E48B879C87AD8744
:10447000BE876B857C858D859E8520E030E04AEF88
:1044800054E40E941F02DC01CB018F839887A98727
:10449000BA876F81788589859A8520E030E040E889
:1044A0005FE30E94790388232CF481E090E09E83EF
:1044B0008D833FC06F81788589859A8520E03FEFA5
:1044C0004FE757E40E94190318164CF56B857C855D
:1044D0008D859E8520E030E040E251E40E941F027D
:1044E000DC01CB01BC01CD010E944900DC01CB0104
:1044F0009E838D830FC088EC90E09C838B838B819F
:104500009C810197F1F79C838B838D819E8101971C
:104510009E838D838D819E81009769F714C06F8182
:10452000788589859A850E944900DC01CB019E83AC
:104530008D838D819E819A83898389819A81019758
:10454000F1F79A8389830E9465090E94CD08109231
:10455000EC030E9464148823E1F30E94FC1380930F
:10456000F1038091F1030E94E2138DE00E94E213B7
:104570008091F103843311F00C94B4148091F10311
:10458000893311F40C94B4148091EC03882309F45A
:1045900027C90C94B414DF93CF93CDB7DEB72E9711
:1045A0000FB6F894DEBF0FBECDBF8091F30381300C
:1045B00009F0ADC083E062E041E00E9499090E94E9
:1045C000CD0881E693E00E94A40882E060E00E94AA
:1045D000D7088BE693E00E94A4088BE793E00E9443
:1045E0000B148DE00E94E2138091C803882309F028
:1045F0008EC08091EC03882309F089C08BE893E09A
:104600000E940B148DE00E94E21387EA93E00E945F
:104610000B148DE00E94E2130E9410090E944309CE
:1046200080E090E0A8E4B3E48B879C87AD87BE87E9
:104630006B857C858D859E8520E030E04AEF54E4D3
:104640000E941F02DC01CB018F839887A987BA875C
:104650006F81788589859A8520E030E040E85FE3C6
:104660000E94790388232CF481E090E09E838D835F
:104670003FC06F81788589859A8520E03FEF4FE7BD
:1046800057E40E94190318164CF56B857C858D85BF
:104690009E8520E030E040E251E40E941F02DC01F0
:1046A000CB01BC01CD010E944900DC01CB019E83FE
:1046B0008D830FC088EC90E09C838B838B819C81E1
:1046C0000197F1F79C838B838D819E8101979E8357
:1046D0008D838D819E81009769F714C06F817885E5
:1046E00089859A850E944900DC01CB019E838D83D8
:1046F0008D819E819A83898389819A810197F1F7BF
:104700009A8389830E9432090E946509FBCF2E9605
:104710000FB6F894DEBF0FBECDBFCF91DF910895E5
:10472000629FD001739FF001829FE00DF11D649F95
:10473000E00DF11D929FF00D839FF00D749FF00D21
:10474000659FF00D9927729FB00DE11DF91F639FC2
:10475000B00DE11DF91FBD01CF0111240895AA1B61
:10476000BB1B51E107C0AA1FBB1FA617B70710F05C
:10477000A61BB70B881F991F5A95A9F7809590958E
:10478000BC01CD0108952F923F924F925F926F929C
:104790007F928F929F92AF92BF92CF92DF92EF92D1
:1047A000FF920F931F93CF93DF93CDB7DEB7CA1B52
:1047B000DB0B0FB6F894DEBF0FBECDBF09942A887D
:1047C000398848885F846E847D848C849B84AA8425
:1047D000B984C884DF80EE80FD800C811B81AA81B2
:1047E000B981CE0FD11D0FB6F894DEBF0FBECDBF7D
:1047F000ED010895E199FECF9FBB8EBBE09A99270A
:104800008DB30895262FE199FECF9FBB8EBB2DBBA4
:104810000FB6F894E29AE19A0FBE01960895F894C3
:02482000FFCFC8
:1048220057656C6C636F6D20746F20536D61727489
:1048320000486F6D652053797374656D00456E7421
:10484200657220796F7572204F7065726174696F3D
:104852006E3A20312D54656D7065726174757265A2
:104862002053656E736F72202C20322D526F6F664B
:104872002053797374656D202C20332D526F6F6D28
:104882002053797374656D2020342D446F6F72202C
:1048920053797374656D202C20392D546F20427228
:1048A20065616B2066726F6D20616E79206F706535
:1048B200726174696F6E0057696E646F777320530B
:1048C200797374656D3A2020352D436C6F73696E70
:1048D2006720696620436F6C6420362D4F70656EC9
:1048E200696E6720696620436F6C6420372D4F70B4
:1048F200656E696E6720696620486F7420382D43A3
:104902006C6F73696E6720696620486F7420004976
:10491200747320436F6C64210057696E646F772053
:10492200697320616C726561647920436C6F736591
:10493200210057696E646F7720697320616C72651C
:10494200616479204F70656E642100436C6F7369F6
:104952006E672057696E646F772E2E2E0057696E30
:10496200646F7720697320616C7265616479204F8E
:1049720070656E21004F70656E696E672057696EB3
:10498200646F772E2E2E0049747320486F742100B5
:1049920057696E646F7720697320616C7265616418
:1049A2007920436C6F7365642100526F6F662053E8
:1049B200797374656D005072657373203220746F61
:1049C20020436F756E74696E756520616E6420395F
:1049D200206F7220616E79206368617220746F208B
:1049E200457869746500526F6F6D205379737465F1
:1049F2006D005072657373203320746F20436F759E
:104A02006E74696E756520616E642039206F722044
:104A1200616E79206368617220746F2045786974D1
:104A22006500446F6F722053797374656D00507224
:104A3200657373203420746F20436F756E74696ED2
:104A4200756520616E642039206F7220616E792055
:104A52006368617220746F204578697465006C6FB9
:104A620067696E2020666F720066697273742074C3
:104A7200696D65005365742061646D696E207061B3
:104A820073730041646D696E20706173733A0050F4
:104A92006173732053617665640053656C6563745A
:104AA200204D6F6465203A00303A41646D696E2092
:104AB200313A47756573740041646D696E204D6FBC
:104AC200646500456E74657220506173733A0047E5
:104AD20075657374204D6F646500636F72726563F0
:104AE2007420506173730077726F6E672050617328
:104AF2007300506C6561736520547279204167615F
:104B0200696E004F70656E696E6720446F6F722E1A
:104B12002E00436C6F73696E6720446F6F722E2E86
:104B2200005761726E696E672E2E00546865726559
:104B32002069732061206669726500546865697234
:104B42002069732061206669726500416C6C205790
:104B5200696E646F777320617265204F70656E694C
:104B62006E67204E6F7700416C6C20446F6F72202D
:104B7200617265204F70656E696E67204E6F7700B7
:104B8200000000000000000001013738392F3435E1
:0A4B9200362A3132332D63303D2BFB
:00000001FF
